{
  "contractName": "AdvancedStorage",
  "abi": [
    {
      "constant": true,
      "inputs": [
        {
          "name": "",
          "type": "uint256"
        }
      ],
      "name": "ids",
      "outputs": [
        {
          "name": "",
          "type": "uint256"
        }
      ],
      "payable": false,
      "stateMutability": "view",
      "type": "function"
    },
    {
      "constant": false,
      "inputs": [
        {
          "name": "id",
          "type": "uint256"
        }
      ],
      "name": "add",
      "outputs": [],
      "payable": false,
      "stateMutability": "nonpayable",
      "type": "function"
    },
    {
      "constant": true,
      "inputs": [
        {
          "name": "i",
          "type": "uint256"
        }
      ],
      "name": "get",
      "outputs": [
        {
          "name": "",
          "type": "uint256"
        }
      ],
      "payable": false,
      "stateMutability": "view",
      "type": "function"
    },
    {
      "constant": true,
      "inputs": [],
      "name": "getAll",
      "outputs": [
        {
          "name": "",
          "type": "uint256[]"
        }
      ],
      "payable": false,
      "stateMutability": "view",
      "type": "function"
    },
    {
      "constant": true,
      "inputs": [],
      "name": "length",
      "outputs": [
        {
          "name": "",
          "type": "uint256"
        }
      ],
      "payable": false,
      "stateMutability": "view",
      "type": "function"
    }
  ],
  "bytecode": "0x608060405234801561001057600080fd5b5061028b806100206000396000f3fe608060405234801561001057600080fd5b50600436106100575760003560e01c80631003e2d21461005c5780631f7b6d321461008a57806353ed5143146100a85780639507d39a14610107578063fac333ac14610149575b600080fd5b6100886004803603602081101561007257600080fd5b810190808035906020019092919050505061018b565b005b6100926101ba565b6040518082815260200191505060405180910390f35b6100b06101c6565b6040518080602001828103825283818151815260200191508051906020019060200280838360005b838110156100f35780820151818401526020810190506100d8565b505050509050019250505060405180910390f35b6101336004803603602081101561011d57600080fd5b810190808035906020019092919050505061021e565b6040518082815260200191505060405180910390f35b6101756004803603602081101561015f57600080fd5b810190808035906020019092919050505061023e565b6040518082815260200191505060405180910390f35b600081908060018154018082558091505090600182039060005260206000200160009091929091909150555050565b60008080549050905090565b6060600080548060200260200160405190810160405280929190818152602001828054801561021457602002820191906000526020600020905b815481526020019060010190808311610200575b5050505050905090565b600080828154811061022c57fe5b90600052602060002001549050919050565b6000818154811061024b57fe5b90600052602060002001600091509050548156fea165627a7a72305820c3b693e159902f5b01b86b662d3286445d10f9adfad7118359d6d6679cf321020029",
  "source": "pragma solidity ^0.5.0;\r\n\r\ncontract AdvancedStorage {\r\n  uint[] public ids;\r\n\r\n  function add(uint id) public {\r\n    ids.push(id);\r\n  }\r\n\r\n  function get(uint i) view public returns(uint) {\r\n    return ids[i];\r\n  }\r\n  \r\n  function getAll() view public returns(uint[] memory) {\r\n    return ids;\r\n  }\r\n\r\n  function length() view public returns(uint) {\r\n    return ids.length;\r\n  }\r\n}\r\n",
  "sourcePath": "C:/Users/pchap/Documents/Solidity/EAT/dapp-30/day4-advanced-storage/tests/start/contracts/AdvancedStorage.sol",
  "compiler": {
    "name": "solc",
    "version": "0.5.8+commit.23d335f2.Emscripten.clang"
  },
  "schemaVersion": "3.0.16",
  "updatedAt": "2020-11-14T14:35:12.924Z",
  "devdoc": {
    "methods": {}
  },
  "userdoc": {
    "methods": {}
  }
}