{
  "contractName": "Fibonacci",
  "abi": [
    {
      "constant": true,
      "inputs": [
        {
          "name": "n",
          "type": "uint256"
        }
      ],
      "name": "fib",
      "outputs": [
        {
          "name": "",
          "type": "uint256"
        }
      ],
      "payable": false,
      "stateMutability": "pure",
      "type": "function"
    }
  ],
  "bytecode": "0x608060405234801561001057600080fd5b50610106806100206000396000f3fe6080604052348015600f57600080fd5b50600436106045576000357c010000000000000000000000000000000000000000000000000000000090048063c6c2ea1714604a575b600080fd5b607360048036036020811015605e57600080fd5b81019080803590602001909291905050506089565b6040518082815260200191505060405180910390f35b600080821415609a576000905060d5565b6000600190506000600190506000600290505b8481101560ce576000828401905083925080935050808060010191505060ad565b5081925050505b91905056fea165627a7a72305820d65b56fec95de9f15facfba02515b393be46d0fb9989c4e3a97179aa169694c30029",
  "source": "pragma solidity ^0.5.2;\r\n\r\ncontract Fibonacci {\r\n  function fib(uint n) pure external returns(uint) {\r\n    if(n == 0) {\r\n      return 0;\r\n    }\r\n    uint fi_1 = 1;\r\n    uint fi_2 = 1;\r\n    for(uint i = 2; i < n; i++) {\r\n      uint fi = fi_1 + fi_2;\r\n      fi_2 = fi_1;\r\n      fi_1 = fi;\r\n    }\r\n    return fi_1;\r\n  }\r\n}\r\n",
  "sourcePath": "C:/Users/pchap/Documents/Solidity/EAT/dapp-30/day12-fibonacci/tests/start/contracts/Fibonacci.sol",
  "compiler": {
    "name": "solc",
    "version": "0.5.2+commit.1df8f40c.Emscripten.clang"
  },
  "schemaVersion": "3.3.2",
  "updatedAt": "2021-02-22T09:17:57.213Z",
  "networkType": "ethereum",
  "devdoc": {
    "methods": {}
  },
  "userdoc": {
    "methods": {}
  }
}