{
  "contractName": "Voting",
  "abi": [
    {
      "constant": true,
      "inputs": [
        {
          "name": "",
          "type": "address"
        }
      ],
      "name": "voters",
      "outputs": [
        {
          "name": "",
          "type": "bool"
        }
      ],
      "payable": false,
      "stateMutability": "view",
      "type": "function"
    },
    {
      "constant": true,
      "inputs": [],
      "name": "admin",
      "outputs": [
        {
          "name": "",
          "type": "address"
        }
      ],
      "payable": false,
      "stateMutability": "view",
      "type": "function"
    },
    {
      "inputs": [],
      "payable": false,
      "stateMutability": "nonpayable",
      "type": "constructor"
    },
    {
      "constant": false,
      "inputs": [
        {
          "name": "_voters",
          "type": "address[]"
        }
      ],
      "name": "addVoters",
      "outputs": [],
      "payable": false,
      "stateMutability": "nonpayable",
      "type": "function"
    },
    {
      "constant": false,
      "inputs": [
        {
          "name": "name",
          "type": "string"
        },
        {
          "name": "_choices",
          "type": "string[]"
        },
        {
          "name": "offset",
          "type": "uint256"
        }
      ],
      "name": "createBallot",
      "outputs": [],
      "payable": false,
      "stateMutability": "nonpayable",
      "type": "function"
    },
    {
      "constant": false,
      "inputs": [
        {
          "name": "ballotId",
          "type": "uint256"
        },
        {
          "name": "choiceId",
          "type": "uint256"
        }
      ],
      "name": "vote",
      "outputs": [],
      "payable": false,
      "stateMutability": "nonpayable",
      "type": "function"
    },
    {
      "constant": true,
      "inputs": [
        {
          "name": "ballotId",
          "type": "uint256"
        }
      ],
      "name": "results",
      "outputs": [
        {
          "components": [
            {
              "name": "id",
              "type": "uint256"
            },
            {
              "name": "name",
              "type": "string"
            },
            {
              "name": "votes",
              "type": "uint256"
            }
          ],
          "name": "",
          "type": "tuple[]"
        }
      ],
      "payable": false,
      "stateMutability": "view",
      "type": "function"
    }
  ],
  "bytecode": "0x608060405234801561001057600080fd5b5033600360006101000a81548173ffffffffffffffffffffffffffffffffffffffff021916908373ffffffffffffffffffffffffffffffffffffffff1602179055506111f3806100616000396000f3fe608060405234801561001057600080fd5b506004361061007f576000357c0100000000000000000000000000000000000000000000000000000000900480631b0c27da1461008457806320faae8e146100b45780638203373a146100d0578063a3ec138d146100ec578063b384abef1461011c578063f851a44014610138575b600080fd5b61009e60048036036100999190810190610c22565b610156565b6040516100ab9190610f48565b60405180910390f35b6100ce60048036036100c99190810190610ba3565b6102dd565b005b6100ea60048036036100e59190810190610b5e565b6104b9565b005b61010660048036036101019190810190610b35565b6105ef565b6040516101139190610f6a565b60405180910390f35b61013660048036036101319190810190610c4b565b61060f565b005b610140610854565b60405161014d9190610f2d565b60405180910390f35b6060600160008381526020019081526020016000206003015442101515156101b3576040517f08c379a00000000000000000000000000000000000000000000000000000000081526004016101aa90611005565b60405180910390fd5b60016000838152602001908152602001600020600201805480602002602001604051908101604052809291908181526020016000905b828210156102d257838290600052602060002090600302016060604051908101604052908160008201548152602001600182018054600181600116156101000203166002900480601f0160208091040260200160405190810160405280929190818152602001828054600181600116156101000203166002900480156102b05780601f10610285576101008083540402835291602001916102b0565b820191906000526020600020905b81548152906001019060200180831161029357829003601f168201915b50505050508152602001600282015481525050815260200190600101906101e9565b505050509050919050565b600360009054906101000a900473ffffffffffffffffffffffffffffffffffffffff1673ffffffffffffffffffffffffffffffffffffffff163373ffffffffffffffffffffffffffffffffffffffff1614151561036f576040517f08c379a000000000000000000000000000000000000000000000000000000000815260040161036690610fc5565b60405180910390fd5b600254600160006002548152602001908152602001600020600001819055508260016000600254815260200190815260200160002060010190805190602001906103ba92919061087a565b508042016001600060025481526020019081526020016000206003018190555060008090505b82518110156104a157600160006002548152602001908152602001600020600201606060405190810160405280838152602001858481518110151561042157fe5b9060200190602002015181526020016000815250908060018154018082558091505090600182039060005260206000209060030201600090919290919091506000820151816000015560208201518160010190805190602001906104869291906108fa565b506040820151816002015550505080806001019150506103e0565b50600260008154809291906001019190505550505050565b600360009054906101000a900473ffffffffffffffffffffffffffffffffffffffff1673ffffffffffffffffffffffffffffffffffffffff163373ffffffffffffffffffffffffffffffffffffffff1614151561054b576040517f08c379a000000000000000000000000000000000000000000000000000000000815260040161054290610fc5565b60405180910390fd5b60008090505b828290508110156105ea576001600080858585818110151561056f57fe5b9050602002013573ffffffffffffffffffffffffffffffffffffffff1673ffffffffffffffffffffffffffffffffffffffff1673ffffffffffffffffffffffffffffffffffffffff16815260200190815260200160002060006101000a81548160ff0219169083151502179055508080600101915050610551565b505050565b60006020528060005260406000206000915054906101000a900460ff1681565b600115156000803373ffffffffffffffffffffffffffffffffffffffff1673ffffffffffffffffffffffffffffffffffffffff16815260200190815260200160002060009054906101000a900460ff1615151415156106a3576040517f08c379a000000000000000000000000000000000000000000000000000000000815260040161069a90610fe5565b60405180910390fd5b60001515600460003373ffffffffffffffffffffffffffffffffffffffff1673ffffffffffffffffffffffffffffffffffffffff168152602001908152602001600020600084815260200190815260200160002060009054906101000a900460ff161515141515610749576040517f08c379a000000000000000000000000000000000000000000000000000000000815260040161074090610f85565b60405180910390fd5b6001600083815260200190815260200160002060030154421015156107a3576040517f08c379a000000000000000000000000000000000000000000000000000000000815260040161079a90610fa5565b60405180910390fd5b6001600460003373ffffffffffffffffffffffffffffffffffffffff1673ffffffffffffffffffffffffffffffffffffffff168152602001908152602001600020600084815260200190815260200160002060006101000a81548160ff021916908315150217905550600160008381526020019081526020016000206002018181548110151561082f57fe5b9060005260206000209060030201600201600081548092919060010191905055505050565b600360009054906101000a900473ffffffffffffffffffffffffffffffffffffffff1681565b828054600181600116156101000203166002900490600052602060002090601f016020900481019282601f106108bb57805160ff19168380011785556108e9565b828001600101855582156108e9579182015b828111156108e85782518255916020019190600101906108cd565b5b5090506108f6919061097a565b5090565b828054600181600116156101000203166002900490600052602060002090601f016020900481019282601f1061093b57805160ff1916838001178555610969565b82800160010185558215610969579182015b8281111561096857825182559160200191906001019061094d565b5b509050610976919061097a565b5090565b61099c91905b80821115610998576000816000905550600101610980565b5090565b90565b60006109ab823561114a565b905092915050565b60008083601f84011215156109c757600080fd5b8235905067ffffffffffffffff8111156109e057600080fd5b6020830191508360208202830111156109f857600080fd5b9250929050565b600082601f8301121515610a1257600080fd5b8135610a25610a2082611052565b611025565b9150818183526020840193506020810190508360005b83811015610a6b5781358601610a518882610a75565b845260208401935060208301925050600181019050610a3b565b5050505092915050565b600082601f8301121515610a8857600080fd5b8135610a9b610a968261107a565b611025565b91508082526020830160208301858383011115610ab757600080fd5b610ac2838284611166565b50505092915050565b600082601f8301121515610ade57600080fd5b8135610af1610aec826110a6565b611025565b91508082526020830160208301858383011115610b0d57600080fd5b610b18838284611166565b50505092915050565b6000610b2d823561115c565b905092915050565b600060208284031215610b4757600080fd5b6000610b558482850161099f565b91505092915050565b60008060208385031215610b7157600080fd5b600083013567ffffffffffffffff811115610b8b57600080fd5b610b97858286016109b3565b92509250509250929050565b600080600060608486031215610bb857600080fd5b600084013567ffffffffffffffff811115610bd257600080fd5b610bde86828701610acb565b935050602084013567ffffffffffffffff811115610bfb57600080fd5b610c07868287016109ff565b9250506040610c1886828701610b21565b9150509250925092565b600060208284031215610c3457600080fd5b6000610c4284828501610b21565b91505092915050565b60008060408385031215610c5e57600080fd5b6000610c6c85828601610b21565b9250506020610c7d85828601610b21565b9150509250929050565b610c9081611102565b82525050565b6000610ca1826110df565b80845260208401935083602082028501610cba856110d2565b60005b84811015610cf3578383038852610cd5838351610ece565b9250610ce0826110f5565b9150602088019750600181019050610cbd565b508196508694505050505092915050565b610d0d81611114565b82525050565b6000610d1e826110ea565b808452610d32816020860160208601611175565b610d3b816111a8565b602085010191505092915050565b6000602582527f766f7465722063616e206f6e6c7920766f7465206f6e636520666f722061206260208301527f616c6c6f740000000000000000000000000000000000000000000000000000006040830152606082019050919050565b6000602382527f63616e206f6e6c7920766f746520756e74696c2062616c6c6f7420656e64206460208301527f61746500000000000000000000000000000000000000000000000000000000006040830152606082019050919050565b6000600a82527f6f6e6c792061646d696e000000000000000000000000000000000000000000006020830152604082019050919050565b6000601482527f6f6e6c7920766f746572732063616e20766f74650000000000000000000000006020830152604082019050919050565b6000602e82527f63616e6e6f7420736565207468652062616c6c6f7420726573756c742062656660208301527f6f72652062616c6c6f7420656e640000000000000000000000000000000000006040830152606082019050919050565b6000606083016000830151610ee66000860182610f1e565b5060208301518482036020860152610efe8282610d13565b9150506040830151610f136040860182610f1e565b508091505092915050565b610f2781611140565b82525050565b6000602082019050610f426000830184610c87565b92915050565b60006020820190508181036000830152610f628184610c96565b905092915050565b6000602082019050610f7f6000830184610d04565b92915050565b60006020820190508181036000830152610f9e81610d49565b9050919050565b60006020820190508181036000830152610fbe81610da6565b9050919050565b60006020820190508181036000830152610fde81610e03565b9050919050565b60006020820190508181036000830152610ffe81610e3a565b9050919050565b6000602082019050818103600083015261101e81610e71565b9050919050565b6000604051905081810181811067ffffffffffffffff8211171561104857600080fd5b8060405250919050565b600067ffffffffffffffff82111561106957600080fd5b602082029050602081019050919050565b600067ffffffffffffffff82111561109157600080fd5b601f19601f8301169050602081019050919050565b600067ffffffffffffffff8211156110bd57600080fd5b601f19601f8301169050602081019050919050565b6000602082019050919050565b600081519050919050565b600081519050919050565b6000602082019050919050565b600061110d82611120565b9050919050565b60008115159050919050565b600073ffffffffffffffffffffffffffffffffffffffff82169050919050565b6000819050919050565b600061115582611120565b9050919050565b6000819050919050565b82818337600083830152505050565b60005b83811015611193578082015181840152602081019050611178565b838111156111a2576000848401525b50505050565b6000601f19601f830116905091905056fea265627a7a7230582072ae69a1d11339e900484c93b7e134b36587ee43739874e141492d0b7ea184d16c6578706572696d656e74616cf50037",
  "source": "pragma solidity ^0.5.2;\r\npragma experimental ABIEncoderV2;\r\n\r\ncontract Voting {\r\n  mapping(address => bool) public voters;\r\n  struct Choice {\r\n    uint id;\r\n    string name;\r\n    uint votes;\r\n  }\r\n  struct Ballot {\r\n    uint id;\r\n    string name;\r\n    Choice[] choices;\r\n    uint end;\r\n  }\r\n  mapping(uint => Ballot) ballots;\r\n  uint nextBallotId;\r\n  address public admin;\r\n  mapping(address => mapping(uint => bool)) votes;\r\n  \r\n  constructor() public {\r\n    admin = msg.sender;\r\n  }\r\n  \r\n  function addVoters(address[] calldata _voters) external onlyAdmin() {\r\n    for(uint i = 0; i < _voters.length; i++) {\r\n        voters[_voters[i]] = true;\r\n    }\r\n  }\r\n\r\n  function createBallot(\r\n    string memory name,\r\n    string[] memory _choices,\r\n    uint offset\r\n    ) public onlyAdmin() {\r\n      ballots[nextBallotId].id = nextBallotId;\r\n      ballots[nextBallotId].name = name;\r\n      ballots[nextBallotId].end = now + offset;\r\n      for(uint i = 0; i < _choices.length ; i++) {\r\n        ballots[nextBallotId].choices.push(Choice(i, _choices[i], 0));\r\n      }\r\n      nextBallotId++;\r\n  }\r\n\r\n  function vote(uint ballotId, uint choiceId) external {\r\n    require(voters[msg.sender] == true, 'only voters can vote');\r\n    require(votes[msg.sender][ballotId] == false, 'voter can only vote once for a ballot');\r\n    require(now < ballots[ballotId].end, 'can only vote until ballot end date');\r\n    votes[msg.sender][ballotId] = true;\r\n    ballots[ballotId].choices[choiceId].votes++;\r\n  }\r\n\r\n  //If `pragma experimental ABIEncoderV2`\r\n  function results(uint ballotId) \r\n    view \r\n    external \r\n    returns(Choice[] memory) {\r\n    require(now >= ballots[ballotId].end, 'cannot see the ballot result before ballot end');\r\n    return ballots[ballotId].choices;\r\n  }\r\n\r\n  //If no `pragma experimental ABIEncoderV2`\r\n  //function results(uint ballotId) \r\n  //  view \r\n  //  external \r\n  //  returns(uint[] memory, string[] memory, uint[]memory) {\r\n  //  require(now >= ballots[ballotId].end, 'can only see result after ballot end');\r\n  //  Choice[] storage choices = ballots[ballotId].choices;\r\n  //  uint[] memory ids = new uint[](choices.length);\r\n  //  string[] memory names = new string[](choices.length);\r\n  //  uint[] memory votes = new uint[](choices.length);\r\n  //  for(uint i = 0; i < choices.length; i++) {\r\n  //    ids[i] = choices[i].id;\r\n  //    names[i] = choices[i].name;\r\n  //    votes[i] = choices[i].votes;\r\n  //  }\r\n  //  return(ids, names, votes);\r\n  //}\r\n\r\n  modifier onlyAdmin() {\r\n    require(msg.sender == admin, 'only admin');\r\n    _;\r\n  }\r\n}\r\n",
  "sourcePath": "C:/Users/pchap/Documents/Solidity/EAT/dapp-30/day14-voting/tests/start/contracts/Voting.sol",
  "compiler": {
    "name": "solc",
    "version": "0.5.2+commit.1df8f40c.Emscripten.clang"
  },
  "schemaVersion": "3.3.2",
  "updatedAt": "2021-03-24T09:47:03.786Z",
  "networkType": "ethereum",
  "devdoc": {
    "methods": {}
  },
  "userdoc": {
    "methods": {}
  }
}