{
  "contractName": "Consumer",
  "abi": [
    {
      "inputs": [
        {
          "internalType": "address",
          "name": "_oracle",
          "type": "address"
        }
      ],
      "stateMutability": "nonpayable",
      "type": "constructor"
    },
    {
      "inputs": [],
      "name": "oracle",
      "outputs": [
        {
          "internalType": "contract IOracle",
          "name": "",
          "type": "address"
        }
      ],
      "stateMutability": "view",
      "type": "function",
      "constant": true
    },
    {
      "inputs": [],
      "name": "foo",
      "outputs": [],
      "stateMutability": "nonpayable",
      "type": "function"
    }
  ],
  "bytecode": "0x608060405234801561001057600080fd5b506040516103773803806103778339818101604052602081101561003357600080fd5b8101908080519060200190929190505050806000806101000a81548173ffffffffffffffffffffffffffffffffffffffff021916908373ffffffffffffffffffffffffffffffffffffffff160217905550506102e3806100946000396000f3fe608060405234801561001057600080fd5b50600436106100365760003560e01c80637dc0d1d01461003b578063c29855781461006f575b600080fd5b610043610079565b604051808273ffffffffffffffffffffffffffffffffffffffff16815260200191505060405180910390f35b61007761009d565b005b60008054906101000a900473ffffffffffffffffffffffffffffffffffffffff1681565b600060405160200180807f4254432f55534400000000000000000000000000000000000000000000000000815250600701905060405160208183030381529060405280519060200120905060008060008060009054906101000a900473ffffffffffffffffffffffffffffffffffffffff1673ffffffffffffffffffffffffffffffffffffffff166354f6127f856040518263ffffffff1660e01b81526004018082815260200191505060606040518083038186803b15801561015f57600080fd5b505afa158015610173573d6000803e3d6000fd5b505050506040513d606081101561018957600080fd5b81019080805190602001909291908051906020019092919080519060200190929190505050925092509250600115158315151461022e576040517f08c379a00000000000000000000000000000000000000000000000000000000081526004018080602001828103825260138152602001807f636f756c64206e6f74206765742070726963650000000000000000000000000081525060200191505060405180910390fd5b607842038210156102a7576040517f08c379a000000000000000000000000000000000000000000000000000000000815260040180806020018281038252600d8152602001807f707269636520746f6f206f6c640000000000000000000000000000000000000081525060200191505060405180910390fd5b5050505056fea26469706673582212208bab1bdba6ef1dff11e20c06be0009f5b032c34a796e8d995f367ae52bed718364736f6c63430007030033",
  "immutableReferences": {},
  "source": "pragma solidity ^0.7.3;\n\nimport './IOracle.sol';\n\ncontract Consumer {\n  IOracle public oracle;\n\n  constructor(address _oracle) {\n    oracle = IOracle(_oracle);\n  }\n\n  function foo() external {\n    bytes32 key = keccak256(abi.encodePacked('BTC/USD'));\n\n    (bool result, uint timestamp, uint data) = oracle.getData(key);\n    require(result == true, 'could not get price');\n    require(timestamp >= block.timestamp - 2 minutes, 'price too old'); \n    //so something with price;\n\n  }\n}\n",
  "sourcePath": "C:\\Users\\pchap\\OneDrive\\Documents\\Sauvegarde_HP_2\\Documents\\Solidity\\Eattheblocks-Github_repo\\defi-development-mastery\\1-defi-building-blocks\\6-oracles\\contracts\\Consumer.sol",
  "compiler": {
    "name": "solc",
    "version": "0.7.3+commit.9bfce1f6.Emscripten.clang"
  },
  "schemaVersion": "3.4.2",
  "updatedAt": "2021-12-10T13:27:14.467Z",
  "networkType": "ethereum",
  "devdoc": {
    "kind": "dev",
    "methods": {},
    "version": 1
  },
  "userdoc": {
    "kind": "user",
    "methods": {},
    "version": 1
  }
}