{
  "contractName": "Deed",
  "abi": [
    {
      "inputs": [
        {
          "internalType": "address",
          "name": "_lawyer",
          "type": "address"
        },
        {
          "internalType": "address payable",
          "name": "_beneficiary",
          "type": "address"
        },
        {
          "internalType": "uint256",
          "name": "_amount",
          "type": "uint256"
        },
        {
          "internalType": "uint256",
          "name": "fromNow",
          "type": "uint256"
        }
      ],
      "payable": true,
      "stateMutability": "payable",
      "type": "constructor"
    },
    {
      "constant": true,
      "inputs": [],
      "name": "amount",
      "outputs": [
        {
          "internalType": "uint256",
          "name": "",
          "type": "uint256"
        }
      ],
      "payable": false,
      "stateMutability": "view",
      "type": "function"
    },
    {
      "constant": true,
      "inputs": [],
      "name": "beneficiary",
      "outputs": [
        {
          "internalType": "address payable",
          "name": "",
          "type": "address"
        }
      ],
      "payable": false,
      "stateMutability": "view",
      "type": "function"
    },
    {
      "constant": true,
      "inputs": [],
      "name": "earliest",
      "outputs": [
        {
          "internalType": "uint256",
          "name": "",
          "type": "uint256"
        }
      ],
      "payable": false,
      "stateMutability": "view",
      "type": "function"
    },
    {
      "constant": true,
      "inputs": [],
      "name": "lawyer",
      "outputs": [
        {
          "internalType": "address",
          "name": "",
          "type": "address"
        }
      ],
      "payable": false,
      "stateMutability": "view",
      "type": "function"
    },
    {
      "constant": false,
      "inputs": [],
      "name": "withdraw",
      "outputs": [],
      "payable": false,
      "stateMutability": "nonpayable",
      "type": "function"
    }
  ],
  "bytecode": "0x60806040526040516104603803806104608339818101604052608081101561002657600080fd5b8101908080519060200190929190805190602001909291908051906020019092919080519060200190929190505050836000806101000a81548173ffffffffffffffffffffffffffffffffffffffff021916908373ffffffffffffffffffffffffffffffffffffffff16021790555082600160006101000a81548173ffffffffffffffffffffffffffffffffffffffff021916908373ffffffffffffffffffffffffffffffffffffffff1602179055508160038190555080420160028190555050505050610367806100f96000396000f3fe608060405234801561001057600080fd5b50600436106100575760003560e01c806338af3eed1461005c5780633bfb6e31146100a65780633ccfd60b146100f05780635dd65d3b146100fa578063aa8c217c14610118575b600080fd5b610064610136565b604051808273ffffffffffffffffffffffffffffffffffffffff1673ffffffffffffffffffffffffffffffffffffffff16815260200191505060405180910390f35b6100ae61015c565b604051808273ffffffffffffffffffffffffffffffffffffffff1673ffffffffffffffffffffffffffffffffffffffff16815260200191505060405180910390f35b6100f8610181565b005b610102610326565b6040518082815260200191505060405180910390f35b61012061032c565b6040518082815260200191505060405180910390f35b600160009054906101000a900473ffffffffffffffffffffffffffffffffffffffff1681565b6000809054906101000a900473ffffffffffffffffffffffffffffffffffffffff1681565b6000809054906101000a900473ffffffffffffffffffffffffffffffffffffffff1673ffffffffffffffffffffffffffffffffffffffff163373ffffffffffffffffffffffffffffffffffffffff1614610243576040517f08c379a000000000000000000000000000000000000000000000000000000000815260040180806020018281038252600b8152602001807f6c6177796572206f6e6c7900000000000000000000000000000000000000000081525060200191505060405180910390fd5b6002544210156102bb576040517f08c379a00000000000000000000000000000000000000000000000000000000081526004018080602001828103825260098152602001807f746f6f206561726c79000000000000000000000000000000000000000000000081525060200191505060405180910390fd5b600160009054906101000a900473ffffffffffffffffffffffffffffffffffffffff1673ffffffffffffffffffffffffffffffffffffffff166108fc479081150290604051600060405180830381858888f19350505050158015610323573d6000803e3d6000fd5b50565b60025481565b6003548156fea265627a7a72315820b236717788d7a73ea0790b70f7159de010edaca3f7fe8f55b51b1e3d8b25eb7b64736f6c63430005100032",
  "source": "pragma solidity ^0.5.0;\r\n\r\ncontract Deed {\r\n  address public lawyer;\r\n  address payable public beneficiary;\r\n  uint public earliest;\r\n  uint public amount;\r\n\r\n  constructor(\r\n    address _lawyer, \r\n    address payable _beneficiary, \r\n    uint _amount,\r\n    uint fromNow) \r\n    payable \r\n    public {\r\n    lawyer = _lawyer;\r\n    beneficiary = _beneficiary;\r\n    amount = _amount;\r\n    earliest = now + fromNow;\r\n  }\r\n\r\n  function withdraw() public {\r\n    require(msg.sender == lawyer, 'lawyer only');\r\n    require(now >= earliest, 'too early');\r\n    beneficiary.transfer(address(this).balance);\r\n  }\r\n}\r\n",
  "sourcePath": "C:\\Users\\pchap\\OneDrive\\Documents\\Sauvegarde_HP_2\\Documents\\Solidity\\EAT\\dapp-30\\day8-deed\\frontend\\start\\contracts\\Deed.sol",
  "compiler": {
    "name": "solc",
    "version": "0.5.16+commit.9c3226ce.Emscripten.clang"
  },
  "schemaVersion": "3.4.2",
  "updatedAt": "2021-08-29T15:55:26.174Z",
  "networkType": "ethereum",
  "devdoc": {
    "methods": {}
  },
  "userdoc": {
    "methods": {}
  }
}