{
  "contractName": "Wallet",
  "abi": [
    {
      "constant": true,
      "inputs": [],
      "name": "quorum",
      "outputs": [
        {
          "name": "",
          "type": "uint256"
        }
      ],
      "payable": false,
      "stateMutability": "view",
      "type": "function"
    },
    {
      "constant": true,
      "inputs": [
        {
          "name": "",
          "type": "uint256"
        }
      ],
      "name": "transfers",
      "outputs": [
        {
          "name": "id",
          "type": "uint256"
        },
        {
          "name": "amount",
          "type": "uint256"
        },
        {
          "name": "to",
          "type": "address"
        },
        {
          "name": "approvals",
          "type": "uint256"
        },
        {
          "name": "sent",
          "type": "bool"
        }
      ],
      "payable": false,
      "stateMutability": "view",
      "type": "function"
    },
    {
      "constant": true,
      "inputs": [
        {
          "name": "",
          "type": "uint256"
        }
      ],
      "name": "approvers",
      "outputs": [
        {
          "name": "",
          "type": "address"
        }
      ],
      "payable": false,
      "stateMutability": "view",
      "type": "function"
    },
    {
      "inputs": [
        {
          "name": "_approvers",
          "type": "address[]"
        },
        {
          "name": "_quorum",
          "type": "uint256"
        }
      ],
      "payable": true,
      "stateMutability": "payable",
      "type": "constructor"
    },
    {
      "constant": false,
      "inputs": [
        {
          "name": "amount",
          "type": "uint256"
        },
        {
          "name": "to",
          "type": "address"
        }
      ],
      "name": "createTransfer",
      "outputs": [],
      "payable": false,
      "stateMutability": "nonpayable",
      "type": "function"
    },
    {
      "constant": false,
      "inputs": [
        {
          "name": "id",
          "type": "uint256"
        }
      ],
      "name": "sendTransfer",
      "outputs": [],
      "payable": false,
      "stateMutability": "nonpayable",
      "type": "function"
    }
  ],
  "bytecode": "0x6080604052604051610a15380380610a158339810180604052604081101561002657600080fd5b81019080805164010000000081111561003e57600080fd5b8281019050602081018481111561005457600080fd5b815185602082028301116401000000008211171561007157600080fd5b505092919060200180519060200190929190505050816000908051906020019061009c9291906100ab565b50806001819055505050610178565b828054828255906000526020600020908101928215610124579160200282015b828111156101235782518260006101000a81548173ffffffffffffffffffffffffffffffffffffffff021916908373ffffffffffffffffffffffffffffffffffffffff160217905550916020019190600101906100cb565b5b5090506101319190610135565b5090565b61017591905b8082111561017157600081816101000a81549073ffffffffffffffffffffffffffffffffffffffff02191690555060010161013b565b5090565b90565b61088e806101876000396000f3fe608060405234801561001057600080fd5b5060043610610074576000357c0100000000000000000000000000000000000000000000000000000000900480631703a018146100795780634c12fa47146100975780639377d711146100e5578063d1c68d1e14610173578063d3650fb8146101a1575b600080fd5b61008161020f565b6040518082815260200191505060405180910390f35b6100e3600480360360408110156100ad57600080fd5b8101908080359060200190929190803573ffffffffffffffffffffffffffffffffffffffff169060200190929190505050610215565b005b610111600480360360208110156100fb57600080fd5b810190808035906020019092919050505061041e565b604051808681526020018581526020018473ffffffffffffffffffffffffffffffffffffffff1673ffffffffffffffffffffffffffffffffffffffff168152602001838152602001821515151581526020019550505050505060405180910390f35b61019f6004803603602081101561018957600080fd5b8101908080359060200190929190505050610481565b005b6101cd600480360360208110156101b757600080fd5b8101908080359060200190929190505050610824565b604051808273ffffffffffffffffffffffffffffffffffffffff1673ffffffffffffffffffffffffffffffffffffffff16815260200191505060405180910390f35b60015481565b600080905060005b6000805490508110156102a9573373ffffffffffffffffffffffffffffffffffffffff1660008281548110151561025057fe5b9060005260206000200160009054906101000a900473ffffffffffffffffffffffffffffffffffffffff1673ffffffffffffffffffffffffffffffffffffffff16141561029c57600191505b808060010191505061021d565b5060011515811515141515610326576040517f08c379a00000000000000000000000000000000000000000000000000000000081526004018080602001828103825260158152602001807f6f6e6c7920617070726f76657220616c6c6f776564000000000000000000000081525060200191505060405180910390fd5b60a06040519081016040528060035481526020018481526020018373ffffffffffffffffffffffffffffffffffffffff1681526020016000815260200160001515815250600260006003548152602001908152602001600020600082015181600001556020820151816001015560408201518160020160006101000a81548173ffffffffffffffffffffffffffffffffffffffff021916908373ffffffffffffffffffffffffffffffffffffffff1602179055506060820151816003015560808201518160040160006101000a81548160ff021916908315150217905550905050600360008154809291906001019190505550505050565b60026020528060005260406000206000915090508060000154908060010154908060020160009054906101000a900473ffffffffffffffffffffffffffffffffffffffff16908060030154908060040160009054906101000a900460ff16905085565b600080905060005b600080549050811015610515573373ffffffffffffffffffffffffffffffffffffffff166000828154811015156104bc57fe5b9060005260206000200160009054906101000a900473ffffffffffffffffffffffffffffffffffffffff1673ffffffffffffffffffffffffffffffffffffffff16141561050857600191505b8080600101915050610489565b5060011515811515141515610592576040517f08c379a00000000000000000000000000000000000000000000000000000000081526004018080602001828103825260158152602001807f6f6e6c7920617070726f76657220616c6c6f776564000000000000000000000081525060200191505060405180910390fd5b600015156002600084815260200190815260200160002060040160009054906101000a900460ff161515141515610631576040517f08c379a000000000000000000000000000000000000000000000000000000000815260040180806020018281038252601e8152602001807f7472616e736665722068617320616c7265616479206265656e2073656e74000081525060200191505060405180910390fd5b60001515600460003373ffffffffffffffffffffffffffffffffffffffff1673ffffffffffffffffffffffffffffffffffffffff168152602001908152602001600020600084815260200190815260200160002060009054906101000a900460ff161515141561072b576001600460003373ffffffffffffffffffffffffffffffffffffffff1673ffffffffffffffffffffffffffffffffffffffff168152602001908152602001600020600084815260200190815260200160002060006101000a81548160ff02191690831515021790555060026000838152602001908152602001600020600301600081548092919060010191905055505b600154600260008481526020019081526020016000206003015410151561081f5760016002600084815260200190815260200160002060040160006101000a81548160ff02191690831515021790555060006002600084815260200190815260200160002060020160009054906101000a900473ffffffffffffffffffffffffffffffffffffffff1690506000600260008581526020019081526020016000206001015490508173ffffffffffffffffffffffffffffffffffffffff166108fc829081150290604051600060405180830381858888f19350505050158015610817573d6000803e3d6000fd5b505050610820565b5b5050565b60008181548110151561083357fe5b906000526020600020016000915054906101000a900473ffffffffffffffffffffffffffffffffffffffff168156fea165627a7a723058201f5a1a6d45c6430c50bfad03c248bf216ea0813e749f843137cf5d66ec77ede20029",
  "source": "pragma solidity ^0.5.2;\r\n\r\ncontract Wallet {\r\n  address[] public approvers;\r\n  uint public quorum;\r\n  struct Transfer {\r\n    uint id;\r\n    uint amount;\r\n    address payable to;\r\n    uint approvals;\r\n    bool sent;\r\n  }\r\n  mapping(uint => Transfer) public transfers;\r\n  uint nextId;\r\n  mapping(address => mapping(uint => bool)) approvals;\r\n\r\n  constructor(address[] memory _approvers, uint _quorum) payable public {\r\n    approvers = _approvers;\r\n    quorum = _quorum;\r\n  }\r\n\r\n  function createTransfer(uint amount, address payable to) onlyApprover() external {\r\n    transfers[nextId] = Transfer(\r\n      nextId,\r\n      amount,\r\n      to,\r\n      0,\r\n      false\r\n    );\r\n    nextId++;\r\n  }\r\n\r\n  function sendTransfer(uint id) onlyApprover() external {\r\n    require(transfers[id].sent == false, 'transfer has already been sent');\r\n    if(approvals[msg.sender][id] == false) {\r\n      approvals[msg.sender][id] = true;\r\n      transfers[id].approvals++;\r\n    }\r\n    if(transfers[id].approvals >= quorum) {\r\n      transfers[id].sent = true;\r\n      address payable to = transfers[id].to;\r\n      uint amount = transfers[id].amount;\r\n      to.transfer(amount);\r\n      return;\r\n    }\r\n  }\r\n\r\n  modifier onlyApprover() {\r\n    bool allowed = false;\r\n    for(uint i; i < approvers.length; i++) {\r\n      if(approvers[i] == msg.sender) {\r\n        allowed = true;\r\n      }\r\n    }\r\n    require(allowed == true, 'only approver allowed');\r\n    _;\r\n  }\r\n}\r\n",
  "sourcePath": "C:/Users/pchap/Documents/Solidity/EAT/dapp-30/day13-multisig-wallet/tests/start/contracts/Wallet.sol",
  "compiler": {
    "name": "solc",
    "version": "0.5.2+commit.1df8f40c.Emscripten.clang"
  },
  "schemaVersion": "3.3.2",
  "updatedAt": "2021-03-15T13:59:54.680Z",
  "networkType": "ethereum",
  "devdoc": {
    "methods": {}
  },
  "userdoc": {
    "methods": {}
  }
}